:10000000E9C0000017C1000015C1000013C10000C5
:1000100011C100000FC100000DC100000BC10000A4
:1000200009C1000007C1000005C1000003C10000B4
:1000300001C10000FFC00000FDC00000FBC00000C7
:10004000F9C00000F7C00000F5C00000F3C00000D8
:10005000F1C00000EFC00000EDC000004BC5000083
:10006000E9C0000011C50000E6C40000E3C00000C4
:10007000E1C00000DFC00000DDC00000DBC0000008
:10008000D9C00000D7C00000D5C00000D3C0000018
:10009000D1C00000CFC00000CDC0000075C5000079
:1000A000C9C00000C7C00000C5C00000C3C0000038
:1000B000C1C00000BFC00000BDC00000BBC0000048
:1000C000B9C00000B7C00000B5C00000B3C0000058
:1000D000B1C00000AFC00000ADC00000ABC0000068
:1000E000A9C0000000002200250028002B002E00DF
:1000F0003100340002010000050108010B01050573
:100100000505070508080808020202020A0A08088D
:1001100004040404010101010101010103030303BB
:1001200003030303040707070C0C0C0C0C0C0C0C4A
:100130000202020206060606060606060B0B0B0B5B
:100140000B0B0B0B01021020200808102040102080
:10015000408002010201080402010102040810208B
:100160004080804020100804020180040201804089
:1001700020100804020108040201010204081020F2
:100180004080010204081020408000000A0B020990
:100190000C0D0E0807030401000000000000000021
:1001A000000000000000000000000000000000004F
:1001B000000000000000121110000000000000000C
:1001C000000000000000000000000000000000002F
:1001D000E7062B0911241FBECFEFD1E2DEBFCDBF52
:1001E00000E00CBF23E0A4E4B2E001C01D92AA3BF2
:1001F000B207E1F712E0A0E0B2E0EAE1F7E100E0E7
:100200000BBF02C007900D92A434B107D9F710E0DC
:10021000C9EED0E000E006C021970109802FFE0161
:100220000E946309C83ED10780E00807A9F715D6E8
:100230000C947C0BE5CE2091060381E0213208F07E
:1002400044C08091E2028111FCCF8091050392E0CD
:100250009093E20291E09093E1029FEF9093E0028D
:100260001092DF022093DE02A5EEB2E0EEEBF2E0A8
:1002700090E0291331C01092BD029091BD02880F09
:10028000892B8093BD028091BC02813049F5109288
:10029000BC028091BD028093BB008091BC0083FDB5
:1002A000F8CF85EC8093BC008091E2028230E1F3CC
:1002B0008091E0028F3FB1F08091E0028032A1F0A6
:1002C0008091E002803391F084E01092E402109279
:1002D00006031092E30208953D9131939F5FC9CFC9
:1002E00085EEE0CF80E0F1CF82E0EFCF83E0EDCF8D
:1002F000282F30E0F901E657FE4F9491F901EC5BAD
:10030000FE4F449122503F4FF9012491222309F4DA
:1003100031C0992309F191509231F0F4E92FF0E0C6
:100320008827EB56FE4F8F4FCEC7C301C701A701E9
:10033000BB01BF01AC01CA01D001D401DA01DE0169
:10034000E201E801EC01AC01F001F601FA01809153
:1003500080008F7780938000E22FF0E0EE0FFF1F88
:10036000EC51FF4FA591B4918FB7F894EC914E2BBF
:100370004C938FBF0895809180008F7DEBCF80914B
:100380008000877FE7CF84B58F7784BDE5CF84B5C4
:100390008F7DFBCF8091B0008F778093B000DCCF52
:1003A0008091B0008F7DF9CF809190008F778093FE
:1003B0009000D2CF809190008F7DF9CF80919000F6
:1003C000877FF5CF8091A0008F778093A000C4CF66
:1003D0008091A0008F7DF9CF8091A000877FF5CF1D
:1003E000809120018F7780932001B6CF80912001EA
:1003F0008F7DF9CF80912001877FF5CF8091B50265
:100400009091B402891B990B089508950895AF92B5
:10041000BF92CF92DF92EF92FF920F931F93CF93F1
:10042000DF936C017B018B01040F151FEB015E0153
:10043000AE18BF08C017D10759F06991D601ED91E8
:10044000FC910190F081E02DC6011995892B79F777
:10045000C501DF91CF911F910F91FF90EF90DF9039
:10046000CF90BF90AF900895FC01538D448D252F00
:1004700030E0842F90E0821B930B541710F0CF963E
:10048000089501970895FC01918D828D981761F070
:10049000A28DAE0FBF2FB11D5D968C91928D9F5F87
:1004A0009F73928F90E008958FEF9FEF0895FC0166
:1004B000918D828D981731F0828DE80FF11D858D19
:1004C00090E008958FEF9FEF0895FC01918D228DAC
:1004D000892F90E0805C9F4F821B91098F73992731
:1004E000089587E093E0F1DF21E0892B09F420E013
:1004F000822F0895FC01A48DA80FB92FB11DA35A16
:10050000BF4F2C91848D90E001968F739927848F33
:10051000A689B7892C93A089B1898C918370806456
:100520008C93938D848D981306C00288F389E02DF7
:1005300080818F7D80830895EF92FF920F931F93A8
:10054000CF93DF93EC0181E0888F9B8D8C8D981386
:100550001AC0E889F989808185FF15C09FB7F89492
:10056000EE89FF896083E889F989808183708064DE
:1005700080839FBF81E090E0DF91CF911F910F9129
:10058000FF90EF900895F62E0B8D10E00F5F1F4F38
:100590000F731127E02E8C8D8E110BC00FB607FC48
:1005A000FACFE889F989808185FFF5CFCE01A2DFF6
:1005B000F2CFEB8DEC0FFD2FF11DE35AFF4FF082D0
:1005C0009FB7F8940B8FEA89FB8980818062D0CF36
:1005D000CF93DF93EC01888D8823B1F0AA89BB8982
:1005E000E889F9898C9185FD03C0808186FD0CC066
:1005F0000FB607FCF7CF8C9185FFF2CF808185FF86
:10060000EDCFCE0177DFEACFDF91CF91089580E083
:1006100090E0892B21F065DF81110E94000080E0CD
:1006200090E0892B49F080E090E0892B29F00E942E
:10063000000081110E94000080E090E0892B49F0C9
:1006400080E090E0892B29F00E94000081110E9437
:10065000000080E090E0892B49F080E090E0892B59
:1006600029F00E94000081110C94000008953FB70A
:10067000F89480918C0290918D02A0918E02B0919D
:100680008F0226B5A89B05C02F3F19F00196A11D2A
:10069000B11D3FBFBA2FA92F982F8827BC01CD01CC
:1006A000620F711D811D911D42E0660F771F881F2B
:1006B000991F4A95D1F708958F929F92AF92BF925A
:1006C000CF92DF92EF92FF924B015C01D0DF6B0182
:1006D0007C01CDDF6C197D098E099F09683E73404E
:1006E00081059105B0F321E0821A9108A108B108B3
:1006F00088EEC80E83E0D81EE11CF11C8114910421
:10070000A104B10431F7FF90EF90DF90CF90BF903C
:10071000AF909F908F90089585ED8093BC0080915D
:10072000BC0084FDFCCF1092E20208952091640287
:10073000260F3327331F21323105ECF42091E202DA
:10074000FC0190E080E0243069F082E00895A091FF
:1007500064022191AC014C5B5D4FA40FB52FB11D1C
:100760002C930196861798F380916402680F60932A
:10077000640280E0089581E008950895E091B40254
:100780008091B502E81730F4F0E0EC56FD4F80811F
:1007900090E008958FEF9FEF08959091B4028091BB
:1007A000B5022FEF3FEF981748F4E92FF0E0EC5631
:1007B000FD4F208130E09F5F9093B402C9010895FE
:1007C000CF92DF92EF92FF920F931F93CF93DF931D
:1007D0007C01CB018A012091E302222389F0EB0105
:1007E0006B01C40ED51ECC15DD0561F06991D701F2
:1007F000ED91FC910190F081E02DC7011995F3CFA7
:10080000642F94DFC801DF91CF911F910F91FF906A
:10081000EF90DF90CF900895CF93DF931F92CDB7E5
:10082000DEB769832091E3022223F9F020910603C9
:10083000203258F021E030E0FC013383228390E045
:1008400080E00F90DF91CF9108958091E402E82F2E
:10085000F0E0EB51FD4F998190838F5F8093E4022C
:100860008093060381E090E0ECCF61E0CE01019639
:100870005DDFF8CF682F84EA93E0CECF90E080E090
:100880000895CF9384EA93E088DFC82F84EA93E049
:1008900084DF20E0822B9C2BCF91089542E050E032
:1008A0006AE272E087E093E0B2CDCF93DF93EC0190
:1008B00088819981009709F0AAD5198218821D8232
:1008C0001C821B821A82DF91CF9108950F931F9390
:1008D000CF93DF93EC0188819981009759F02A81A9
:1008E0003B812617370730F081E0DF91CF911F91D0
:1008F0000F9108958B016F5F7F4F12D6009759F0CB
:10090000998388831B830A832C813D81232B61F784
:10091000FC011082E9CF80E0E8CFEF92FF920F93C5
:100920001F93CF93DF936115710541F480E0DF9150
:10093000CF911F910F91FF90EF90089541155105B0
:10094000A1F07B01EC010C811D81040F151FB80182
:10095000BDDF882359F3288139818C819D81B701BE
:10096000820F931FC2D61D830C8381E0E0CFCF930B
:10097000DF93EC0147E050E06DE272E0CEDF8111E1
:1009800002C0CE0192DFCE01DF91CF910895EF92A8
:10099000FF920F931F93CF93DF93EC017B018A01AA
:1009A000BA0194DF81110AC0CE017FDFCE01DF9151
:1009B000CF911F910F91FF90EF9008951D830C83AD
:1009C000B7018881998191D6F1CFEF92FF920F9371
:1009D0001F93CF93DF93CDB7DEB762970FB6F8942E
:1009E000DEBF0FBECDBF8C01CB01F801118210829A
:1009F00013821282158214824AE09E012F5F3F4FBC
:100A00007901B9012DD4F70101900020E9F7319760
:100A1000AF014E195F09B701C801B9DF62960FB681
:100A2000F894DEBF0FBECDBFDF91CF911F910F9124
:100A3000FF90EF9008951F920F920FB60F9211241E
:100A40000BB60F922F933F934F935F936F937F93C8
:100A50008F939F93AF93BF93EF93FF9387E093E0C0
:100A600049DDFF91EF91BF91AF919F918F917F9160
:100A70006F915F914F913F912F910F900BBE0F900F
:100A80000FBE0F901F9018951F920F920FB60F92E6
:100A900011240BB60F922F938F939F93EF93FF9395
:100AA000E0911703F09118038081E0911D03F0910C
:100AB0001E0382FD1DC09081809120038F5F8F7384
:100AC00020912103821741F0E0912003F0E0E95FDB
:100AD000FC4F958F80932003FF91EF919F918F9111
:100AE0002F910F900BBE0F900FBE0F901F90189577
:100AF0008081F2CF1F920F920FB60F9211242F9385
:100B00003F938F939F93AF93BF938091880290916F
:100B10008902A0918A02B0918B023091870223E072
:100B2000230F2D3758F50196A11DB11D2093870283
:100B30008093880290938902A0938A02B0938B02DB
:100B400080918C0290918D02A0918E02B0918F02C3
:100B50000196A11DB11D80938C0290938D02A093EC
:100B60008E02B0938F02BF91AF919F918F913F9171
:100B70002F910F900FBE0F901F90189526E8230F0E
:100B80000296A11DB11DD2CF1F920F920FB60F92E8
:100B900011240BB60F922F933F934F935F936F9354
:100BA0007F938F939F93AF93BF93EF93FF93809126
:100BB000B900887F803609F44CC008F03FC0883205
:100BC00009F4A8C028F5803109F49CC0C8F4882332
:100BD00009F4FAC0883009F495C0FF91EF91BF91F4
:100BE000AF919F918F917F916F915F914F913F91C5
:100BF0002F910F900BBE0F900FBE0F901F90189566
:100C0000883109F487C0803241F78093E00214C034
:100C1000803409F49CC040F48033B9F38833E9F69A
:100C20008093E00285ECAFC0803509F484C088353C
:100C300009F495C0883489F66FDDCFCF883909F47F
:100C40008CC038F5883729F050F4883611F0803799
:100C500021F683E08093E2021092860257C0883822
:100C600009F47BC0803919F0803809F0B6CF809143
:100C70008602803208F071C0E091860281E08E0F1A
:100C8000809386028091BB00F0E0EA59FD4F80839B
:100C90003DC0803B39F0E0F4803A09F479C0883AED
:100CA00009F09BCF84E08093E202109265021092DB
:100CB0006402E0919202F09193021995809164028E
:100CC00081110FC081E0809364021092440209C038
:100CD000803C09F4A7CF883C09F4A4CF883B09F0F5
:100CE0007CCFE091650281E08E0F80936502F0E099
:100CF000EC5BFD4F80818093BB00909165028091F9
:100D0000640229C08091BD028093BB0085EC809372
:100D1000BC0063CF9091DF028091DE02981758F5F6
:100D2000E091DF0281E08E0F8093DF02F0E0E25479
:100D3000FD4F8081E9CFE091DF0281E08E0F80934B
:100D4000DF028091BB00F0E0E254FD4F8083909180
:100D5000DF028091DE029817C8F285E8D8CFE091D3
:100D6000DF0281E08E0F8093DF028091BB00F0E014
:100D7000E254FD4F80838091E10281115DCF81E0DB
:100D80008093BC0284EA8093BC001092E20225CFDB
:100D900085EC8093BC001092E20280918602803242
:100DA00030F4E0918602F0E0EA59FD4F1082609144
:100DB000860270E0E0919002F091910286E692E066
:100DC00019951092860209CF1092E00235CFE7E024
:100DD000F3E01382128288EE93E0A0E0B0E0848317
:100DE0009583A683B7832AE032E03183208325EC04
:100DF00030E03587248724EC30E03787268720ECE5
:100E000030E0318B208B21EC30E0338B228B22ECD5
:100E100030E0358B248B26EC30E0378B268B118E1F
:100E2000128E138E148EE4EAF3E01382128284830E
:100E30009583A683B7838CE192E091838083E0EB76
:100E4000F3E011821082138212821582148250E024
:100E500040E06CE272E0CF019ACDCF93DF93CDB743
:100E6000DEB768970FB6F894DEBF0FBECDBF78949B
:100E700084B5826084BD84B5816084BD85B582609F
:100E800085BD85B5816085BD80916E008160809350
:100E90006E001092810080918100826080938100B9
:100EA00080918100816080938100809180008160C9
:100EB000809380008091B10084608093B100809124
:100EC000B00081608093B000809191008260809337
:100ED00091008091910081608093910080919000B9
:100EE0008160809390008091A10082608093A10036
:100EF0008091A10081608093A1008091A000816019
:100F00008093A000809121018260809321018091D3
:100F10002101816080932101809120018160809373
:100F2000200180917A00846080937A0080917A0019
:100F3000826080937A0080917A00816080937A0049
:100F400080917A00806880937A001092C100E091CD
:100F50001703F091180382E08083E0911303F0916E
:100F600014031082E0911503F09116038FEC808337
:100F700010921F03E0911B03F0911C0386E0808315
:100F8000E0911903F0911A03808180618083E091E0
:100F90001903F0911A03808188608083E09119031E
:100FA000F0911A03808180688083E0911903F091A9
:100FB0001A0380818F7D80831092B4021092B50253
:100FC0001092E402109206031092E20211E01093D4
:100FD000E1021092BC0284E18BD985E189D980912C
:100FE000B9008E7F8093B9008091B9008D7F809386
:100FF000B90088E48093B80085E48093BC0085E064
:1010000092E0909393028093920286E092E0909314
:101010009102809390021093E3028EE18093050386
:101020001092E4021092060390E080E023DC88E254
:1010300090E020DC00D96AE070E080E090E03CDBEA
:101040001093E3021092E4021092060381E090E014
:1010500011DC80E690E00EDCEED86AE070E080E023
:1010600090E02ADB1093E3021092E4021092060350
:1010700082E090E0FFDB90E080E0FCDBDCD86AE01F
:1010800070E080E090E018DBFF24F394DD24DA9434
:1010900085E0C82E95EEB92E25ECA22E3EE1E32E7A
:1010A0008091E2028111FCCFF092E202F092E10223
:1010B000D092E0021092DF02C092DE02F092BD02F6
:1010C0008091BD028C638093BD028091BC0281300F
:1010D00009F0ADC01092BC028091BD028093BB00AC
:1010E0008091BC0083FDF8CFA092BC008091E20209
:1010F0008130E1F38091DF0296E0863010F4909128
:10110000DF02EEEBF2E0A4E9B2E080E0891392C0E6
:101110001092B4028093B502863008F48FC0B1DB20
:101120009093BB028093BA02ACDB9093B902809398
:10113000B802A7DB9093B7028093B6026091B60223
:101140007091B702CE01019640DC6091B8027091B7
:10115000B902CE01079639DC6091BA027091BB02E8
:10116000CE01439632DC1E861D86188A1F861A8A97
:10117000198A6B897C896115710529F04F89588D11
:10118000CE010D9604DCCE010D96F1DB8C014B8572
:101190005C856F817885C1DB811102C0C80185DB68
:1011A000C801E5DB8C014D815E8169817A81B5DB07
:1011B000811102C0C80179DB83E0003B180761F0B0
:1011C000F801608171816115710509F440C04481A5
:1011D000558180EB93E0DBDB8D859E8518D18B8973
:1011E0009C8915D18F81988512D189819A810FD1DF
:1011F0004091B4035091B5036091B0037091B10375
:1012000087E093E004D94ADBF092E302E092050321
:101210001092E4021092060383E090E02BDB0BD8DF
:1012200064E670E080E090E047DAF1D939CFB0921F
:10123000BC005CCF21912D938F5F68CF4DE050E0D3
:1012400065E372E087E093E0E2D828DB77CF80EBBC
:1012500093E02BDBC1CF8091B0039091B103D7C055
:10126000BB274A3031F4992322F4BDE29095819551
:101270009F4F01C0BB27FB015527AA27880F991F45
:10128000AA1FA41710F0A41B83955051B9F7A05DB5
:10129000AA3308F0A95DA193009779F7B111B19332
:1012A0001192CB0100C0DC01FC01672F7191772303
:1012B000E1F7329704C07C916D9370836291AE1711
:1012C000BF07C8F30895EE0FFF1F881F8BBF07905D
:1012D000F691E02D19940F931F93CF93DF938230F3
:1012E000910510F482E090E0E091B803F091B90329
:1012F00030E020E0B0E0A0E0309799F4211531050E
:1013000009F44AC0281B390B24303105D8F58A81ED
:101310009B816115710589F1FB0193838283FE0135
:1013200011C0408151810281138148175907E0F0B3
:101330004817590799F4109761F012960C93129779
:1013400013961C933296CF01DF91CF911F910F918D
:1013500008950093B8031093B903F4CF2115310514
:1013600051F04217530738F0A901DB019A01BD0182
:10137000DF01F801C1CFEF01F9CF9093B90380935A
:10138000B803CDCFFE01E20FF31F8193919322505A
:10139000310939832883D7CF2091B6033091B70321
:1013A000232B41F420910202309103023093B703C2
:1013B0002093B603209100023091010221153105DE
:1013C00041F42DB73EB74091040250910502241B11
:1013D000350BE091B603F091B703E217F307A0F4E1
:1013E0002E1B3F0B2817390778F0AC014E5F5F4F7B
:1013F0002417350748F04E0F5F1F5093B7034093F3
:10140000B603819391939FCFF0E0E0E09CCFCF9320
:10141000DF930097E9F0FC01329713821282A091CA
:10142000B803B091B903ED0130E020E01097A1F4CA
:1014300020813181820F931F2091B6033091B70331
:101440002817390709F061C0F093B703E093B6039A
:10145000DF91CF910895EA01CE17DF07E8F54A81C1
:101460005B819E0141155105B1F7E901FB83EA83D8
:1014700049915991C40FD51FEC17FD0761F4808184
:1014800091810296840F951FE90199838883828157
:1014900093819B838A83F0E0E0E012968D919C918A
:1014A00013970097B9F52D913C911197CD010296B4
:1014B000820F931F2091B6033091B7032817390785
:1014C00039F6309751F51092B9031092B803B093E2
:1014D000B703A093B603BCCFD383C28340815181AD
:1014E000840F951FC817D90761F44E5F5F4F88813D
:1014F0009981480F591F518340838A819B8193832F
:1015000082832115310509F0B0CFF093B903E09340
:10151000B8039ECFFD01DC01C0CF13821282D7CF6A
:101520004F925F926F927F928F929F92AF92BF92F3
:10153000CF92DF92EF92FF920F931F93CF93DF939F
:101540008C01009791F4CB01DF91CF911F910F9106
:10155000FF90EF90DF90CF90BF90AF909F908F90D3
:101560007F906F905F904F90B6CEFC01E60FF71F13
:101570009C0122503109E217F30708F4AAC0D901EF
:10158000CD91DC911197C617D70718F1C530D10559
:1015900070F0CE0104978617970748F0C61BD70B4B
:1015A0002297C193D1936D937C93CF0130DFC80113
:1015B000DF91CF911F910F91FF90EF90DF90CF902F
:1015C000BF90AF909F908F907F906F905F904F9063
:1015D00008955B01AC1ABD0A4C018C0E9D1EA091B2
:1015E000B803B091B903512C412CF12CE12C109788
:1015F00031F58091B6039091B7038815990509F0EC
:101600005CC04616570608F058C0809100029091C1
:101610000102009741F48DB79EB7409104025091AA
:101620000502841B950BE817F90708F052C0F093E8
:10163000B703E093B603F90171836083B8CF8D914E
:101640009C91119712966C90129713967C90139719
:10165000A815B90559F56C0142E0C40ED11CCA1495
:10166000DB0420F1AC014A195B09DA0112961597E7
:1016700080F06282738251834083D9016D937C93A1
:10168000E114F10471F0D7011396FC93EE931297D5
:101690008ECF22968C0F9D1FF90191838083F301D9
:1016A000EFCFF093B903E093B80381CF4816590602
:1016B00008F42C017D01D3019ACFCB010CDE7C0113
:1016C000009739F0AE01B80107D0C801A0DE87014C
:1016D0006ECF10E000E06BCFFB01DC0102C0019097
:1016E0000D9241505040D8F70895FB01DC01019064
:1016F0000D920020E1F7089510E0C9EED0E000E07F
:1017000005C0802FFE01DFDD2196011DCA3ED107F5
:0A17100080E00807B1F7F894FFCF5E
:10171A000000BA038000000000009C0207023402A5
:10172A00E802650243025702000000000C04E003CD
:10173A003E04BD03FE01CD03BE030D0A0020202096
:10174A002C202020004E6F206461746120666F7522
:04175A006E640000B9
:00000001FF
