:10000000E8C0000016C1000014C1000012C10000C9
:1000100010C100000EC100000CC100000AC10000A8
:1000200008C1000006C1000004C1000002C10000B8
:1000300000C10000FEC00000FCC00000FAC00000CB
:10004000F8C00000F6C00000F4C00000F2C00000DC
:10005000F0C00000EEC00000ECC000009DC5000034
:10006000E8C0000063C5000038C50000E2C0000021
:10007000E0C00000DEC00000DCC00000DAC000000C
:10008000D8C00000D6C00000D4C00000D2C000001C
:10009000D0C00000CEC00000CCC00000C7C500002A
:1000A000C8C00000C6C00000C4C00000C2C000003C
:1000B000C0C00000BEC00000BCC00000BAC000004C
:1000C000B8C00000B6C00000B4C00000B2C000005C
:1000D000B0C00000AEC00000ACC00000AAC000006C
:1000E000A8C0000000002200250028002B002E00E0
:1000F0003100340002010000050108010B01050573
:100100000505070508080808020202020A0A08088D
:1001100004040404010101010101010103030303BB
:1001200003030303040707070C0C0C0C0C0C0C0C4A
:100130000202020206060606060606060B0B0B0B5B
:100140000B0B0B0B01021020200808102040102080
:10015000408002010201080402010102040810208B
:100160004080804020100804020180040201804089
:1001700020100804020108040201010204081020F2
:100180004080010204081020408000000A0B020990
:100190000C0D0E0807030401000000000000000021
:1001A000000000000000000000000000000000004F
:1001B000000000000000121110000000000000000C
:1001C000000000000000000000000000000000002F
:1001D000390711241FBECFEFD1E2DEBFCDBF00E053
:1001E0000CBF12E0A0E0B2E0E4E7F6E100E00BBFF4
:1001F00002C007900D92A834B107D9F723E0A8E414
:10020000B2E001C01D92AE3AB207E1F710E0C9EECC
:10021000D0E000E006C021970109802FFE010E9476
:10022000300BC83ED10780E00807A9F75BD60C94D5
:10023000380BE6CE2091040381E0213208F044C05F
:100240008091E0028111FCCF8091030392E09093B2
:10025000E00291E09093DF029FEF9093DE02109214
:10026000DD022093DC02A3EEB2E0ECEBF2E090E0E2
:10027000291331C01092BB029091BB02880F892BC9
:100280008093BB028091BA02813049F51092BA0284
:100290008091BB028093BB008091BC0083FDF8CFAE
:1002A00085EC8093BC008091E0028230E1F3809184
:1002B000DE028F3FB1F08091DE028032A1F08091AA
:1002C000DE02803391F084E01092E2021092040387
:1002D0001092E10208953D9131939F5FC9CF85EE61
:1002E000E0CF80E0F1CF82E0EFCF83E0EDCF282FA9
:1002F00030E0F901E657FE4F9491F901EC5BFE4FB7
:10030000449122503F4FF9012491222309F432C035
:10031000992311F191509231F8F4E92FF0E08827F8
:10032000EB56FE4F8F4F0C94300BC301C701A70152
:10033000BB01BF01AC01CA01D001D401DA01DE0169
:10034000E201E801EC01AC01F001F601FA01809153
:1003500080008F7780938000E22FF0E0EE0FFF1F88
:10036000EC51FF4FA591B4918FB7F894EC914E2BBF
:100370004C938FBF0895809180008F7DEBCF80914B
:100380008000877FE7CF84B58F7784BDE5CF84B5C4
:100390008F7DFBCF8091B0008F778093B000DCCF52
:1003A0008091B0008F7DF9CF809190008F778093FE
:1003B0009000D2CF809190008F7DF9CF80919000F6
:1003C000877FF5CF8091A0008F778093A000C4CF66
:1003D0008091A0008F7DF9CF8091A000877FF5CF1D
:1003E000809120018F7780932001B6CF80912001EA
:1003F0008F7DF9CF80912001877FF5CF8091980282
:1004000090919902891B990B089508950895AF92D0
:10041000BF92CF92DF92EF92FF920F931F93CF93F1
:10042000DF936C017B018B01040F151FEB015E0153
:10043000AE18BF08C017D10759F06991D601ED91E8
:10044000FC910190F081E02DC6011995892B79F777
:10045000C501DF91CF911F910F91FF90EF90DF9039
:10046000CF90BF90AF900895FC01538D448D252F00
:1004700030E0842F90E0821B930B541710F0CF963E
:10048000089501970895FC01918D828D981761F070
:10049000A28DAE0FBF2FB11D5D968C91928D9F5F87
:1004A0009F73928F90E008958FEF9FEF0895FC0166
:1004B000918D828D981731F0828DE80FF11D858D19
:1004C00090E008958FEF9FEF0895FC01918D228DAC
:1004D000892F90E0805C9F4F821B91098F73992731
:1004E000089585E093E0F1DF21E0892B09F420E015
:1004F000822F0895FC01A48DA80FB92FB11DA35A16
:10050000BF4F2C91848D90E001968F739927848F33
:10051000A689B7892C93A089B1898C918370806456
:100520008C93938D848D981306C00288F389E02DF7
:1005300080818F7D80830895EF92FF920F931F93A8
:10054000CF93DF93EC0181E0888F9B8D8C8D981386
:100550001AC0E889F989808185FF15C09FB7F89492
:10056000EE89FF896083E889F989808183708064DE
:1005700080839FBF81E090E0DF91CF911F910F9129
:10058000FF90EF900895F62E0B8D10E00F5F1F4F38
:100590000F731127E02E8C8D8E110BC00FB607FC48
:1005A000FACFE889F989808185FFF5CFCE01A2DFF6
:1005B000F2CFEB8DEC0FFD2FF11DE35AFF4FF082D0
:1005C0009FB7F8940B8FEA89FB8980818062D0CF36
:1005D000CF93DF93EC01888D8823B1F0AA89BB8982
:1005E000E889F9898C9185FD03C0808186FD0CC066
:1005F0000FB607FCF7CF8C9185FFF2CF808185FF86
:10060000EDCFCE0177DFEACFDF91CF91089580E083
:1006100090E0892B21F065DF81110E94000080E0CD
:1006200090E0892B49F080E090E0892B29F00E942E
:10063000000081110E94000080E090E0892B49F0C9
:1006400080E090E0892B29F00E94000081110E9437
:10065000000080E090E0892B49F080E090E0892B59
:1006600029F00E94000081110C94000008953FB70A
:10067000F8948091900290919102A0919202B09191
:10068000930226B5A89B05C02F3F19F00196A11D26
:10069000B11D3FBFBA2FA92F982F8827BC01CD01CC
:1006A000620F711D811D911D42E0660F771F881F2B
:1006B000991F4A95D1F7089585ED8093BC008091EC
:1006C000BC0084FDFCCF1092E002089520916802E6
:1006D000260F3327331F21323105ECF42091E0023D
:1006E000FC0190E080E0243069F082E00895A09160
:1006F00068022191AC01485B5D4FA40FB52FB11D7D
:100700002C930196861798F380916802680F609386
:10071000680280E0089581E008950895E0919902CB
:1007200080919802E81730F4F0E0E656FD4F8081A2
:1007300090E008958FEF9FEF089590919902809136
:1007400098022FEF3FEF981748F4E92FF0E0E656B4
:10075000FD4F208130E09F5F90939902C901089579
:10076000CF92DF92EF92FF920F931F93CF93DF937D
:100770007C01CB018A012091E102222389F0EB0167
:100780006B01C40ED51ECC15DD0561F06991D70152
:10079000ED91FC910190F081E02DC7011995F3CF07
:1007A000642F94DFC801DF91CF911F910F91FF90CB
:1007B000EF90DF90CF900895CF93DF931F92CDB746
:1007C000DEB769832091E1022223F9F0209104032E
:1007D000203258F021E030E0FC013383228390E0A6
:1007E00080E00F90DF91CF9108958091E202E82F91
:1007F000F0E0ED51FD4F998190838F5F8093E2028D
:100800008093040381E090E0ECCF61E0CE0101969B
:100810005DDFF8CF682F82EA93E0CECF90E080E0F2
:100820000895FC0101900020E9F73197AF01481BC2
:10083000590BBC0185E093E0EACD8F929F92AF9275
:10084000BF920F931F93CF93DF93CDB7DEB7A197DE
:100850000FB6F894DEBF0FBECDBF19A2423008F428
:100860004AE08E010F5D1F4F842E912CB12CA12CDC
:10087000A5019401D3D6E62FB901CA01EA30ECF400
:10088000E05DD801EE938D01232B242B252B81F7DE
:1008900090E080E0109711F0CD01C3DFA1960FB674
:1008A000F894DEBF0FBECDBFDF91CF911F910F91A6
:1008B000BF90AF909F908F900895E95CE2CF4F92E8
:1008C0005F926F927F928F929F92AF92BF92CF92E0
:1008D000DF92EF92FF920F931F93CF936B017C01F6
:1008E000742EAC019B0196D6882391F084E292E0AD
:1008F000CF911F910F91FF90EF90DF90CF90BF901D
:10090000AF909F908F907F906F905F904F9089CF26
:1009100046015701E894B7F82FEF3FEF4FE75FE745
:10092000C501B40177D681110CC02FEF3FEF4FE71F
:100930005FE7C501B401BDD418161CF488E292E04B
:10094000D7CF2FEF3FEF4FE75FE4C701B601FBD5ED
:1009500018161CF48CE292E0CBCF2FEF3FEF4FE75D
:100960005FECC701B601A5D487FDF4CF20E030E0ED
:10097000A901C701B6019DD410E000E087FF09C0BE
:100980006DE285E093E0D8DD8C01F7FAF094F7F89A
:10099000F094C0E060E070E080E09FE37C1639F006
:1009A00020E030E040E251E488D4CF5FF7CFA701E8
:1009B00096011BD42B013C01E8D44B015C014AE0B9
:1009C0003CDF7C01E00EF11ECC2381F1C501B401B6
:1009D00008D59B01AC01C301B20106D44B015C01F7
:1009E0006EE285E093E0A8DDE80EF91EC150F0F05C
:1009F00020E030E040E251E4C501B401A8D52B016C
:100A00003C01C3D44B01B12CA12C4AE0C501B40177
:100A100014DFE80EF91EC501B401E3D49B01AC015B
:100A2000C301B201E1D34B015C01E0CFC701CF911B
:100A30001F910F91FF90EF90DF90CF90BF90AF90FC
:100A40009F908F907F906F905F904F9008959091BE
:100A5000E0029111FCCF91E09093E0029093DF02CD
:100A60002FEF2093DE021092DD029093DC02909330
:100A7000BB029091BB02880F892B8093BB028091AF
:100A8000BA02813021F51092BA028091BB028093A4
:100A9000BB008091BC0083FDF8CF85EC8093BC0047
:100AA0008091E0028130E1F38091DD0292E08230BA
:100AB00010F49091DD02ACEBB2E0EAE9F2E080E004
:100AC000891307C01092990280939802089585EEC9
:100AD000E5CF2D9121938F5FF3CF1F920F920FB629
:100AE0000F9211240BB60F922F933F934F935F9366
:100AF0006F937F938F939F93AF93BF93EF93FF93E6
:100B000085E093E0F7DCFF91EF91BF91AF919F916A
:100B10008F917F916F915F914F913F912F910F90A6
:100B20000BBE0F900FBE0F901F9018951F920F9243
:100B30000FB60F9211240BB60F922F938F939F93A2
:100B4000EF93FF93E0911503F09116038081E091FC
:100B50001B03F0911C0382FD1DC0908180911E0338
:100B60008F5F8F7320911F03821741F0E0911E0366
:100B7000F0E0EB5FFC4F958F80931E03FF91EF91A8
:100B80009F918F912F910F900BBE0F900FBE0F90E2
:100B90001F9018958081F2CF1F920F920FB60F927F
:100BA00011242F933F938F939F93AF93BF93809183
:100BB0008C0290918D02A0918E02B0918F023091A3
:100BC0008B0223E0230F2D3758F50196A11DB11D8F
:100BD00020938B0280938C0290938D02A0938E02BF
:100BE000B0938F028091900290919102A091920215
:100BF000B09193020196A11DB11D80939002909334
:100C00009102A0939202B0939302BF91AF919F91F2
:100C10008F913F912F910F900FBE0F901F901895BD
:100C200026E8230F0296A11DB11DD2CF1F920F926D
:100C30000FB60F9211240BB60F922F933F934F9341
:100C40005F936F937F938F939F93AF93BF93EF9334
:100C5000FF938091B900887F803609F44CC008F07A
:100C60003FC0883209F4A8C028F5803109F49CC03F
:100C7000C8F4882309F4FAC0883009F495C0FF91BC
:100C8000EF91BF91AF919F918F917F916F915F9104
:100C90004F913F912F910F900BBE0F900FBE0F9071
:100CA0001F901895883109F487C0803241F78093EE
:100CB000DE0214C0803409F49CC040F48033B9F3E0
:100CC0008833E9F68093DE0285ECAFC0803509F405
:100CD00084C0883509F495C0883489F6EDDCCFCF1F
:100CE000883909F48CC038F5883729F050F48836F3
:100CF00011F0803721F683E08093E00210928A029F
:100D000057C0883809F47BC0803919F0803809F061
:100D1000B6CF80918A02803208F071C0E0918A02D9
:100D200081E08E0F80938A028091BB00F0E0E6594B
:100D3000FD4F80833DC0803B39F0E0F4803A09F4F8
:100D400079C0883A09F09BCF84E08093E00210924A
:100D5000690210926802E0919602F091970219954B
:100D60008091680281110FC081E080936802109227
:100D7000480209C0803C09F4A7CF883C09F4A4CFFD
:100D8000883B09F07CCFE091690281E08E0F80936F
:100D90006902F0E0E85BFD4F80818093BB00909199
:100DA00069028091680229C08091BB028093BB00D8
:100DB00085EC8093BC0063CF9091DD028091DC02D2
:100DC000981758F5E091DD0281E08E0F8093DD02E7
:100DD000F0E0E454FD4F8081E9CFE091DD0281E055
:100DE0008E0F8093DD028091BB00F0E0E454FD4F54
:100DF00080839091DD028091DC029817C8F285E82B
:100E0000D8CFE091DD0281E08E0F8093DD028091EA
:100E1000BB00F0E0E454FD4F80838091DF0281113C
:100E20005DCF81E08093BA0284EA8093BC00109287
:100E3000E00225CF85EC8093BC001092E002809107
:100E40008A02803230F4E0918A02F0E0E659FD4FE8
:100E5000108260918A0270E0E0919402F091950214
:100E60008AE692E0199510928A0209CF1092DE026A
:100E700035CFE5E0F3E01382128288EE93E0A0E044
:100E8000B0E084839583A683B78324E032E0318386
:100E9000208325EC30E03587248724EC30E0378749
:100EA000268720EC30E0318B208B21EC30E0338B37
:100EB000228B22EC30E0358B248B26EC30E0378B14
:100EC000268B118E128E138E148EE2EAF3E01382BB
:100ED000128284839583A683B78386E192E091830F
:100EE00080830895789484B5826084BD84B58160E0
:100EF00084BD85B5826085BD85B5816085BD8091E5
:100F00006E00816080936E0010928100809181005C
:100F10008260809381008091810081608093810054
:100F2000809180008160809380008091B100846016
:100F30008093B1008091B00081608093B000809177
:100F400091008260809391008091910081608093F4
:100F50009100809190008160809390008091A10029
:100F600082608093A1008091A10081608093A100A4
:100F70008091A00081608093A00080912101826017
:100F800080932101809121018160809321018091D2
:100F9000200181608093200180917A008460809399
:100FA0007A0080917A00826080937A0080917A0042
:100FB000816080937A0080917A00806880937A00C3
:100FC0001092C10010929902109298021092E202BF
:100FD000109204031092E00281E08093DF021092ED
:100FE000BA0284E184D985E182D98091B9008E7FEB
:100FF0008093B9008091B9008D7F8093B90088E417
:101000008093B80085E48093BC0085E092E09093E3
:1010100097028093960286E092E0909395028093E7
:101020009402E0911503F091160382E08083E09131
:101030001103F09112031082E0911303F091140355
:101040008FEC808310921D03E0911903F0911A0335
:1010500086E08083E0911703F0911803808180611E
:101060008083E0911703F09118038081886080836A
:10107000E0911703F0911803808180688083E091EC
:101080001703F091180380818F7D8083F0DA4B0184
:101090005C0184E6C82ED12CE12CF12CE8DA681929
:1010A00079098A099B09683E734081059105B0F36F
:1010B00021E0C21AD108E108F10888EE880E83E029
:1010C000981EA11CB11CC114D104E104F10431F734
:1010D00081E08093E10283E5809303031092E202B2
:1010E000109204038DE290E095DB88E090E092DBC3
:1010F000A1D8C1E0D3E5C093E102D09303031092DD
:10110000E2021092040382E390E084DB83E390E048
:1011100081DB90D883E590E09ADC809198029091F1
:101120009902891B990B039734F482EA93E005DB5B
:1011300082EA93E002DBC093E1021092E202109295
:10114000040384E390E066DB85E390E063DB72D820
:1011500083E590E07CDC8091980290919902891B54
:10116000990B039734F482EA93E0E7DA82EA93E09A
:10117000E4DAC093E1021092E2021092040386E3E3
:1011800090E048DB87E390E045DB54D883E590E0CE
:101190005EDC8091980290919902891B990B0397CC
:1011A00034F482EA93E0C9DA82EA93E0C6DA80E3B3
:1011B00092E037DB42E060E070E0CB0180DB85E36A
:1011C00092E02FDB42E060E070E0CB0178DB8DE362
:1011D00092E027DB42E060E070E0CB0170DB85E469
:1011E00092E01FDB14DA87CF5058BB27AA270ED016
:1011F00070C161D130F066D120F031F49F3F11F41D
:101200001EF456C10EF4E095E7FB4CC1E92F72D1F4
:1012100080F3BA17620773078407950718F071F413
:101220009EF58AC10EF4E0950B2EBA2FA02D0B016E
:10123000B90190010C01CA01A0011124FF27591B1B
:1012400099F0593F50F4503E68F11A16F040A22F21
:10125000232F342F4427585FF3CF46953795279592
:10126000A795F0405395C9F77EF41F16BA0B620B91
:10127000730B840BBAF09150A1F0FF0FBB1F661FD8
:10128000771F881FC2F70EC0BA0F621F731F841F1B
:1012900048F4879577956795B795F7959E3F08F041
:1012A000B3CF9395880F08F09927EE0F9795879500
:1012B0000895D4D008F481E008950CD00AC102D179
:1012C00040F0F9D030F021F45F3F19F0EBC051113C
:1012D00034C1EEC00FD198F39923C9F35523B1F36C
:1012E000951B550BBB27AA2762177307840738F095
:1012F0009F5F5F4F220F331F441FAA1FA9F333D0F4
:101300000E2E3AF0E0E830D091505040E695001CA7
:10131000CAF729D0FE2F27D0660F771F881FBB1F63
:10132000261737074807AB07B0E809F0BB0B802D3D
:10133000BF01FF2793585F4F2AF09E3F510568F089
:10134000B1C0FBC05F3FECF3983EDCF38695779528
:101350006795B795F7959F5FC9F7880F911D96958B
:10136000879597F90895E1E0660F771F881FBB1FE7
:10137000621773078407BA0720F0621B730B840B94
:10138000BA0BEE1F88F7E0950895BCD088F09F5700
:1013900090F0B92F9927B751A0F0D1F0660F771FC1
:1013A000881F991F1AF0BA95C9F712C0B13081F0A1
:1013B000C3D0B1E00895C0C0672F782F8827B85FE9
:1013C00039F0B93FCCF3869577956795B395D9F702
:1013D0003EF490958095709561957F4F8F4F9F4F0C
:1013E0000895E89409C097FB3EF490958095709518
:1013F00061957F4F8F4F9F4F9923A9F0F92F96E961
:10140000BB279395F695879577956795B795F111D5
:10141000F8CFFAF4BB0F11F460FF1BC06F5F7F4F72
:101420008F4F9F4F16C0882311F096E911C0772384
:1014300021F09EE8872F762F05C0662371F096E88D
:10144000862F70E060E02AF09A95660F771F881F5C
:10145000DAF7880F9695879597F90895990F000800
:10146000550FAA0BE0E8FEEF16161706E807F90776
:10147000C0F012161306E407F50798F0621B730B11
:10148000840B950B39F40A2661F0232B242B252B92
:1014900021F408950A2609F4A140A6958FEF811D35
:1014A000811D089597F99F6780E870E060E00895D6
:1014B0009FEF80EC089500240A941616170618066C
:1014C0000906089500240A94121613061406050648
:1014D0000895092E0394000C11F4882352F0BB0FD9
:1014E00040F4BF2B11F460FF04C06F5F7F4F8F4F3C
:1014F0009F4F089557FD9058440F551F59F05F3F77
:1015000071F04795880F97FB991F61F09F3F79F025
:1015100087950895121613061406551FF2CF4695A7
:10152000F1DF08C0161617061806991FF1CF869529
:101530007105610508940895E894BB27662777270D
:10154000CB0197F908958ADF08F48FEF08950BD047
:10155000C0CFB1DF28F0B6DF18F0952309F0A2CF95
:10156000A7CF1124EACFC6DFA0F3959FD1F3950F43
:1015700050E0551F629FF001729FBB27F00DB11D17
:10158000639FAA27F00DB11DAA1F649F6627B00DA7
:10159000A11D661F829F2227B00DA11D621F739F90
:1015A000B00DA11D621F839FA00D611D221F749F9E
:1015B0003327A00D611D231F849F600D211D822FE5
:1015C000762F6A2F11249F5750408AF0E1F088232C
:1015D0004AF0EE0FFF1FBB1F661F771F881F915039
:1015E0005040A9F79E3F510570F05CCFA6CF5F3FFA
:1015F000ECF3983EDCF3869577956795B795F7956C
:10160000E7959F5FC1F7FE2B880F911D96958795F3
:1016100097F9089523DF880B990B0895A1E21A2EFC
:10162000AA1BBB1BFD010DC0AA1FBB1FEE1FFF1F86
:10163000A217B307E407F50720F0A21BB30BE40BD6
:10164000F50B661F771F881F991F1A9469F760951D
:101650007095809590959B01AC01BD01CF010895D7
:10166000EE0FFF1F881F8BBF0790F691E02D199496
:04167000F894FFCF1C
:10167400000000009C0207023402E80265024302F3
:10168400570200000000DC03B0030E048D03FE01CA
:101694009D038E036E616E00696E66006F76660050
:1016A40058613D200020202059613D200020202049
:0816B4005A613D20000D0A00FF
:00000001FF
